{
    "_format": "hh-sol-artifact-1",
    "contractName": "LiveStreaming",
    "sourceName": "contracts/LiveStreaming.sol",
    "abi": [
        {
            "anonymous": false,
            "inputs": [
                {
                    "indexed": true,
                    "internalType": "uint256",
                    "name": "streamId",
                    "type": "uint256"
                },
                {
                    "indexed": true,
                    "internalType": "address",
                    "name": "commenter",
                    "type": "address"
                },
                {
                    "indexed": false,
                    "internalType": "string",
                    "name": "content",
                    "type": "string"
                }
            ],
            "name": "CommentAdded",
            "type": "event"
        },
        {
            "anonymous": false,
            "inputs": [
                {
                    "indexed": true,
                    "internalType": "uint256",
                    "name": "streamId",
                    "type": "uint256"
                },
                {
                    "indexed": true,
                    "internalType": "address",
                    "name": "owner",
                    "type": "address"
                }
            ],
            "name": "StreamActivated",
            "type": "event"
        },
        {
            "anonymous": false,
            "inputs": [
                {
                    "indexed": true,
                    "internalType": "uint256",
                    "name": "streamId",
                    "type": "uint256"
                },
                {
                    "indexed": true,
                    "internalType": "address",
                    "name": "owner",
                    "type": "address"
                }
            ],
            "name": "StreamCreated",
            "type": "event"
        },
        {
            "anonymous": false,
            "inputs": [
                {
                    "indexed": true,
                    "internalType": "uint256",
                    "name": "streamId",
                    "type": "uint256"
                },
                {
                    "indexed": true,
                    "internalType": "address",
                    "name": "owner",
                    "type": "address"
                }
            ],
            "name": "StreamDeactivated",
            "type": "event"
        },
        {
            "anonymous": false,
            "inputs": [
                {
                    "indexed": true,
                    "internalType": "uint256",
                    "name": "streamId",
                    "type": "uint256"
                },
                {
                    "indexed": true,
                    "internalType": "address",
                    "name": "tipper",
                    "type": "address"
                },
                {
                    "indexed": false,
                    "internalType": "uint256",
                    "name": "amount",
                    "type": "uint256"
                }
            ],
            "name": "Tipped",
            "type": "event"
        },
        {
            "anonymous": false,
            "inputs": [
                {
                    "indexed": true,
                    "internalType": "uint256",
                    "name": "streamId",
                    "type": "uint256"
                },
                {
                    "indexed": true,
                    "internalType": "address",
                    "name": "watcher",
                    "type": "address"
                }
            ],
            "name": "WatcherAdded",
            "type": "event"
        },
        {
            "stateMutability": "payable",
            "type": "fallback"
        },
        {
            "inputs": [
                {
                    "internalType": "uint256",
                    "name": "streamId",
                    "type": "uint256"
                }
            ],
            "name": "activateStream",
            "outputs": [],
            "stateMutability": "nonpayable",
            "type": "function"
        },
        {
            "inputs": [
                {
                    "internalType": "uint256",
                    "name": "streamId",
                    "type": "uint256"
                },
                {
                    "internalType": "string",
                    "name": "content",
                    "type": "string"
                }
            ],
            "name": "addComment",
            "outputs": [],
            "stateMutability": "nonpayable",
            "type": "function"
        },
        {
            "inputs": [
                {
                    "internalType": "address",
                    "name": "",
                    "type": "address"
                }
            ],
            "name": "balances",
            "outputs": [
                {
                    "internalType": "uint256",
                    "name": "",
                    "type": "uint256"
                }
            ],
            "stateMutability": "view",
            "type": "function"
        },
        {
            "inputs": [
                {
                    "internalType": "uint256",
                    "name": "watchFee",
                    "type": "uint256"
                }
            ],
            "name": "createStream",
            "outputs": [
                {
                    "internalType": "uint256",
                    "name": "streamId",
                    "type": "uint256"
                }
            ],
            "stateMutability": "nonpayable",
            "type": "function"
        },
        {
            "inputs": [
                {
                    "internalType": "uint256",
                    "name": "streamId",
                    "type": "uint256"
                }
            ],
            "name": "deactivateStream",
            "outputs": [],
            "stateMutability": "nonpayable",
            "type": "function"
        },
        {
            "inputs": [],
            "name": "getBalance",
            "outputs": [
                {
                    "internalType": "uint256",
                    "name": "",
                    "type": "uint256"
                }
            ],
            "stateMutability": "view",
            "type": "function"
        },
        {
            "inputs": [
                {
                    "internalType": "uint256",
                    "name": "streamId",
                    "type": "uint256"
                }
            ],
            "name": "getCommentsByStreamId",
            "outputs": [
                {
                    "components": [
                        {
                            "internalType": "address",
                            "name": "commenter",
                            "type": "address"
                        },
                        {
                            "internalType": "string",
                            "name": "message",
                            "type": "string"
                        }
                    ],
                    "internalType": "struct LiveStreaming.Comment[]",
                    "name": "",
                    "type": "tuple[]"
                }
            ],
            "stateMutability": "view",
            "type": "function"
        },
        {
            "inputs": [
                {
                    "internalType": "uint256",
                    "name": "streamId",
                    "type": "uint256"
                }
            ],
            "name": "getWatchesByStream",
            "outputs": [
                {
                    "internalType": "uint256[]",
                    "name": "",
                    "type": "uint256[]"
                },
                {
                    "internalType": "address[]",
                    "name": "",
                    "type": "address[]"
                }
            ],
            "stateMutability": "view",
            "type": "function"
        },
        {
            "inputs": [
                {
                    "internalType": "address",
                    "name": "user",
                    "type": "address"
                }
            ],
            "name": "isWhitelisted",
            "outputs": [
                {
                    "internalType": "bool",
                    "name": "",
                    "type": "bool"
                }
            ],
            "stateMutability": "view",
            "type": "function"
        },
        {
            "inputs": [
                {
                    "internalType": "uint256",
                    "name": "streamId",
                    "type": "uint256"
                }
            ],
            "name": "joinStream",
            "outputs": [],
            "stateMutability": "payable",
            "type": "function"
        },
        {
            "inputs": [
                {
                    "internalType": "uint256",
                    "name": "streamId",
                    "type": "uint256"
                }
            ],
            "name": "tip",
            "outputs": [],
            "stateMutability": "payable",
            "type": "function"
        },
        {
            "stateMutability": "payable",
            "type": "receive"
        }
    ],
    "bytecode": "0x608060405234801561001057600080fd5b5061103b806100206000396000f3fe6080604052600436106100a05760003560e01c80633af32abf116100645780633af32abf146101a0578063551479dd146101e9578063aa7e568314610209578063cebd51ba14610229578063e85a53f914610256578063e8b69bc314610276576100cb565b80630e47642a146100ea57806312065fe01461012157806327e235e31461013e57806329c7aa421461016b57806331a7c92b1461018d576100cb565b366100cb5733600090815260046020526040812080543492906100c4908490610c77565b9091555050005b33600090815260046020526040812080543492906100c4908490610c77565b3480156100f657600080fd5b5061010a610105366004610c8f565b610289565b604051610118929190610ca8565b60405180910390f35b34801561012d57600080fd5b50475b604051908152602001610118565b34801561014a57600080fd5b50610130610159366004610d2c565b60046020526000908152604090205481565b34801561017757600080fd5b5061018b610186366004610c8f565b6103ad565b005b61018b61019b366004610c8f565b6104db565b3480156101ac57600080fd5b506101d96101bb366004610d2c565b6001600160a01b031660009081526003602052604090205460ff1690565b6040519015158152602001610118565b3480156101f557600080fd5b50610130610204366004610c8f565b61066c565b34801561021557600080fd5b5061018b610224366004610d72565b610729565b34801561023557600080fd5b50610249610244366004610c8f565b610873565b6040516101189190610e7a565b34801561026257600080fd5b5061018b610271366004610c8f565b61098c565b61018b610284366004610c8f565b610aba565b6060806000600260008581526020019081526020016000208054806020026020016040519081016040528092919081815260200182805480156102eb57602002820191906000526020600020905b8154815260200190600101908083116102d7575b505050505090506000815167ffffffffffffffff81111561030e5761030e610d5c565b604051908082528060200260200182016040528015610337578160200160208202803683370190505b50905060005b82518110156103a257600083828151811061035a5761035a610ef7565b602002602001015190508083838151811061037757610377610ef7565b6001600160a01b0390921660209283029190910190910152508061039a81610f0d565b91505061033d565b509094909350915050565b6000818152600160205260409020546001600160a01b031633146104305760405162461bcd60e51b815260206004820152602f60248201527f4f6e6c79207468652073747265616d206f776e65722063616e2064656163746960448201526e76617465207468652073747265616d60881b60648201526084015b60405180910390fd5b600081815260016020526040902054600160a01b900460ff166104955760405162461bcd60e51b815260206004820152601e60248201527f5468652073747265616d20697320616c726561647920696e61637469766500006044820152606401610427565b600081815260016020526040808220805460ff60a01b1916905551339183917f56032a1fe68cdbe495138d76bbfbfa60440f23eed83d21a6a1aade7edc20b0d09190a350565b600081815260016020526040902054600160a01b900460ff166105105760405162461bcd60e51b815260040161042790610f28565b600081815260016020819052604090912001543410156105685760405162461bcd60e51b8152602060048201526013602482015272496e636f72726563742077617463682066656560681b6044820152606401610427565b336000908152600360209081526040808320805460ff1916600117905583835260059091528120546001600160a01b03169060646105a734605f610f5f565b6105b19190610f7e565b6040519091506001600160a01b0383169082156108fc029083906000818181858888f193505050501580156105ea573d6000803e3d6000fd5b506105f58134610fa0565b3060009081526004602052604081208054909190610614908490610c77565b90915550506000838152600260209081526040808320805460018101825590845291832033920182905551909185917f91556c194f9422ec9c8918e86bf1cf49ab3a0daaac75defda49f5c9e48a43bea9190a3505050565b600080546040805160608101825233808252602080830186815283850188815286885260018084528689209551865493511515600160a01b026001600160a81b03199094166001600160a01b03919091161792909217855551930192909255600590915290832080546001600160a01b031916909117905581549091806106f283610f0d565b9091555050604051339082907fd231fdf89ff594ed94b945199f7acf7bde6184b499cb6026b2469c82fd1960a190600090a3919050565b600082815260016020526040902054600160a01b900460ff1661075e5760405162461bcd60e51b815260040161042790610f28565b3360009081526003602052604090205460ff166107bd5760405162461bcd60e51b815260206004820152601d60248201527f4f6e6c7920766965776572732063616e2061646420636f6d6d656e74730000006044820152606401610427565b6000828152600660209081526040808320815180830190925233825281830185815281546001808201845592865294849020835160029096020180546001600160a01b0319166001600160a01b0390961695909517855551805192949361082a9392850192910190610bc8565b505050336001600160a01b0316827fcc2d7dd2085ae6644799a42c0174adf9afc10a43f26db5eac3ddd1f96d1d64be836040516108679190610fb7565b60405180910390a35050565b606060066000838152602001908152602001600020805480602002602001604051908101604052809291908181526020016000905b82821015610981576000848152602090819020604080518082019091526002850290910180546001600160a01b0316825260018101805492939192918401916108f090610fca565b80601f016020809104026020016040519081016040528092919081815260200182805461091c90610fca565b80156109695780601f1061093e57610100808354040283529160200191610969565b820191906000526020600020905b81548152906001019060200180831161094c57829003601f168201915b505050505081525050815260200190600101906108a8565b505050509050919050565b6000818152600160205260409020546001600160a01b03163314610a085760405162461bcd60e51b815260206004820152602d60248201527f4f6e6c79207468652073747265616d206f776e65722063616e2061637469766160448201526c7465207468652073747265616d60981b6064820152608401610427565b600081815260016020526040902054600160a01b900460ff1615610a6e5760405162461bcd60e51b815260206004820152601c60248201527f5468652073747265616d20697320616c726561647920616374697665000000006044820152606401610427565b600081815260016020526040808220805460ff60a01b1916600160a01b17905551339183917fdb1c9b73ab3d3e67b06175e2c1463a413bbf45b2c3ad31122a4c5cacd71a20c09190a350565b600081815260016020526040902054600160a01b900460ff16610aef5760405162461bcd60e51b815260040161042790610f28565b60003411610b4b5760405162461bcd60e51b8152602060048201526024808201527f54697020616d6f756e74206d7573742062652067726561746572207468616e206044820152637a65726f60e01b6064820152608401610427565b6000818152600560205260408082205490516001600160a01b039091169182913480156108fc0292909190818181858888f19350505050158015610b93573d6000803e3d6000fd5b50604051348152339083907f9bb057a11c3457c55cb17f11a38392348805c6ccb84a9b7e8d9c42c694a7882b90602001610867565b828054610bd490610fca565b90600052602060002090601f016020900481019282610bf65760008555610c3c565b82601f10610c0f57805160ff1916838001178555610c3c565b82800160010185558215610c3c579182015b82811115610c3c578251825591602001919060010190610c21565b50610c48929150610c4c565b5090565b5b80821115610c485760008155600101610c4d565b634e487b7160e01b600052601160045260246000fd5b60008219821115610c8a57610c8a610c61565b500190565b600060208284031215610ca157600080fd5b5035919050565b604080825283519082018190526000906020906060840190828701845b82811015610ce157815184529284019290840190600101610cc5565b5050508381038285015284518082528583019183019060005b81811015610d1f5783516001600160a01b031683529284019291840191600101610cfa565b5090979650505050505050565b600060208284031215610d3e57600080fd5b81356001600160a01b0381168114610d5557600080fd5b9392505050565b634e487b7160e01b600052604160045260246000fd5b60008060408385031215610d8557600080fd5b82359150602083013567ffffffffffffffff80821115610da457600080fd5b818501915085601f830112610db857600080fd5b813581811115610dca57610dca610d5c565b604051601f8201601f19908116603f01168101908382118183101715610df257610df2610d5c565b81604052828152886020848701011115610e0b57600080fd5b8260208601602083013760006020848301015280955050505050509250929050565b6000815180845260005b81811015610e5357602081850181015186830182015201610e37565b81811115610e65576000602083870101525b50601f01601f19169290920160200192915050565b60006020808301818452808551808352604092508286019150828160051b87010184880160005b83811015610ee957888303603f19018552815180516001600160a01b03168452870151878401879052610ed687850182610e2d565b9588019593505090860190600101610ea1565b509098975050505050505050565b634e487b7160e01b600052603260045260246000fd5b6000600019821415610f2157610f21610c61565b5060010190565b60208082526018908201527f5468652073747265616d206973206e6f74206163746976650000000000000000604082015260600190565b6000816000190483118215151615610f7957610f79610c61565b500290565b600082610f9b57634e487b7160e01b600052601260045260246000fd5b500490565b600082821015610fb257610fb2610c61565b500390565b602081526000610d556020830184610e2d565b600181811c90821680610fde57607f821691505b60208210811415610fff57634e487b7160e01b600052602260045260246000fd5b5091905056fea26469706673582212205775fd8834949dcbb67edfc0839239e768714cbfade82d68c541d23897d62d1664736f6c63430008090033",
    "linkReferences": {},
    "deployedLinkReferences": {}
}